:1009C90075A15575A1AA53B9BF43B98075A15575CC
:0E09D900A1AAE5B954F84404F5B9E4F5A12249
:100A1B00EF7802CEC313CE13D8F9FFEF4E60090562
:090A2B00A1EF1F70F61E80F322FA
:100A3400AD07AC06ED4C600E7FE87E03120A1BED99
:070A44001D70F11C80EE2281
:040AAB0043C610220C
:1007B500C29FD29EC29DC2CDC2CC438780E4751331
:1007C50086751201F511F5107B0AFAF9F8AF13AE2B
:1007D50012AD11AC101204DAAF038F14AF13AE12C1
:1007E500AD11AC10E47B0AFAF9F81204DA8F138E16
:1007F500128D118C10E514C394054011EF2401F5F9
:1008050013E43EF512E43DF511E43CF510E5895499
:100815000F4420F58943C9A0E513F404F58DD28E64
:04082500D299D29CF6
:0108290022AC
:080003003098FDC298AF99226C
:080A93008F993099FDC29922F0
:0A0A7F00C2C7D2C5D2C475C2D92285
:080A9B0030C0FDC2C0AFC12252
:080AA3008FC130C1FDD2C12258
:100A4B0075A15575A1AAEF600543B101800353B1A0
:070A5B00FEE4F5A1F5FF2206
:030AAF008FFF2294
:0A0A890075A15575A1AA43B1102212
:0E003300ABE243E2B07F017E00120A348BE2A2
:01004100229C
:1005AB00313233343505010906A101050719E0295C
:1005BB00E7150025017501950881029501750881E4
:1005CB00019503750105081901290391029505751C
:1005DB000191019506750826FF0005071900299161
:1005EB008100C0050C0901A101150025010AEA00D3
:1005FB000AE9000AE2000A8A010A83010A23020AB5
:10060B00CD000AB6000AB5000AB7000A00000A00BE
:10061B00000A00000A00000A00000A00000A00009D
:10062B000A00000A00000A00000A00000A00000A83
:10063B0000000A1122750195188102050119002984
:10064B008315002583750895018100C012011001E7
:10065B00000000083D413A5500000000000109026E
:10066B003B00020101A0C8090400000103010100C5
:10067B00092111010001223E000705810308000A30
:10068B0009040100010300000009210001000122FF
:09069B0069000705820304000A4E
:1009AA00014200013200012D00012E00C108082277
:0E09BA000000000000000000043E00000000ED
:10092500C2EAE4F5E275ED0075EC0075EF0075EED1
:100935000A75E50075E45075EA67E5EB54FE440475
:10094500F5EB75DC0275D24275D412E4F5E375D189
:100955008075E22943D10175D8FF75E107D2EA22F6
:1009E700780A7C007D017B007A0079227E007F08EF
:0A09F70012042975D30853D2FC2224
:100A010078507C007D017B007A00793E7E007F0476
:0A0A110012042975D50453D4FC2209
:0300430002004672
:0D004600C0E0C0F0C083C082C0D075D008FB
:1000530020D90302032FE5D9543F7003020314246C
:10006300E070030202BF14601824F16025240E60BF
:100073000302032D75D500E5D454FC4402F5D48066
:100083000B75D300E5D254FC4402F5D2752C010262
:10009300032D85DB15E5156408600302029A9000C1
:1000A30006E0F530A3E07007E530D3947F40037595
:1000B300307F751500900001E0F531900000E054A9
:1000C300606018E5311424FD400302029D24FB24E3
:1000D300FD400302029D800002029AE531B40B0049
:1000E30040030202989000EFF8282873020280026E
:1000F30001D002029802020A0202980201A8020138
:10010300100202980201B10201C702029D9000038E
:10011300E024FE601624E0602024217046753BFF36
:10012300753C06753D57751512803B753BFF753C55
:1001330006753D6975153B802D900004E0FF700C3A
:10014300753BFF753C05753DB075153EEFB4011168
:10015300753BFF753C05753DEE751569754301806B
:100163000580007515FFE530D395154003851530DF
:10017300E530C3940840047F088002AF308F157EBA
:100183000078007C007D01AB3BAA3CA93D12042909
:10019300C3E5309515F530E515253DF53DE4353CD2
:1001A300F53C02029D900002E0F53002029D9000B2
:1001B30000E52AF0E530C39401500302029D751552
:1001C3000102029D900002E0F52A02029D900000C8
:1001D300E0541F6402702D900004E014601D24801D
:1001E300600E14701CE5D454BC4402F5D402029D85
:1001F300E5D254BC4402F5D202029D53D2730202EB
:100203009D02029A02029A900000E0541FFD701BA7
:10021300900003E0FE900002E0FBEB64014E7009E6
:100223009006709320E573806E806CED6402704BD2
:10023300900003E0FE900002E0FDED4E703B900065
:1002430005E0FE900004E0FDEDFFEE702AEF24FED2
:1002530060112481601714701EE5D454BF4403F564
:10026300D48037E5D4547F440CF5D4802DE5D254A3
:10027300BF4403F5D28023801E801C801A900000A7
:10028300E4F0A3F0E530C394024005751502800A3B
:10029300853015800580007515FFE515B4FF0975D8
:1002A30031FF75DCCF02032DE515D3940850058586
:1002B30015DD800375DD0075DCC0806EE53124FB40
:1002C300603D147044E530C3940840047F08800205
:1002D300AF308F157E0078007C007D01AB3BAA3CDC
:1002E300A93D120429C3E5309515F530E515253DE3
:1002F300F53DE4353CF53C8515DD63DC40802BE5BD
:10030300E354804530F5E3800375DD0075DC02803E
:100313001985DB15E531B4090BE515B40106900029
:1003230000E0F52F75DD0075DC00C2D930D81275F9
:10033300DC0275D21075D41275E300C2DAC2D9C2D9
:0B034300D830DA04C2DA800375D8FF5E
:0B034E00D0D0D082D083D0F0D0E032BD
:10000E00C28CE4F52C1209E7E52C60FCE4F52CFE1D
:10001E007F08FDFB7A00792212057F1209E7E52C95
:05002E0060FCD28C22F1
:10096500C28CE4F52C120A01E52C60FCE4F52CFEA2
:100975007F04FDFB7A00793E12057F120A01E52C02
:0509850060FCD28C2291
:10088E008F16E516B4310A753F01E5436003120970
:10089E0065E516B4320A753E80E5436003120965BC
:1008AE00E516B4330A753E40E5436003120965E56B
:1008BE0016B4340A753E02E5436003120965E51667
:0E08CE00B4350A753E01E54360031209652248
:10098A00200506D207D20880123005133007083036
:10099A0008057F3312088EC207C208A205920222F6
:10082A00A200300301B34008A201300401B35053BF
:10083A00A200300101B3404330071FC20830000D47
:10084A003003059005AC802D9005AB802830030558
:10085A009005AB80039005AC801B30000D3003057A
:10086A009005AF80039005AE800B3003059005AE6E
:10087A0080039005AFE493FF12088EA2039200A2B0
:04088A0004920122B1
:10073000E4F519F518F517F5167519407518427591
:10074000170FF516FCFDFEAB19AA18A917A816126B
:10075000044FE47BE87A03F9F81204DA8F198E1853
:100760008D178C16C3E49519F519E49518F51874CE
:10077000019517F517E49516F516E5192401F519F5
:10078000E43518F518E43517F517E43516F516AF06
:1007900019AE18AD17FC780812056C8F2D85192E2F
:1007A000E58954F14401F589852D8C852E8AC28D09
:0407B000D2A9D28C6C
:0107B4002222
:1008DC001209C97F057E00120A347F0212073012FA
:1008EC000925D2AFE4F5D3F5D5F52CF543752F01D9
:1008FC00D294D295D296854232A205300201B340F1
:10090C0010A203300001B34008A204300101B3501F
:09091C00E812098A12082A80E0A1
:0F0A6200A295B39203A296B39204A29492052296
:03000B00020A7175
:0E0A7100C0D0852D8C852E8A120A62D0D0321C
:030000000206A451
:0C06A400787FE4F6D8FD7581430206EB78
:10035900E709F608DFFA8046E709F208DFFA803E86
:1003690088828C83E709F0A3DFFA8032E309F60873
:10037900DFFA8078E309F208DFFA807088828C83DB
:10038900E309F0A3DFFA806489828A83E0A3F6088F
:10039900DFFA805889828A83E0A3F208DFFA804C69
:1003A90080D280FA80C680D4806980F28033801040
:1003B90080A680EA809A80A880DA80E280CA8033A9
:1003C90089828A83ECFAE493A3C8C582C8CCC58321
:1003D900CCF0A3C8C582C8CCC583CCDFE9DEE780F1
:1003E9000D89828A83E493A3F608DFF9ECFAA9F070
:1003F900EDFB2289828A83ECFAE0A3C8C582C8CCC6
:10040900C583CCF0A3C8C582C8CCC583CCDFEADEDE
:10041900E880DB89828A83E493A3F208DFF980CC40
:1004290088F0EF60010E4E60C388F0ED2402B40439
:100439000050B9F582EB2402B4040050AF232345E0
:0604490082239003A97359
:10044F00E88FF0A4CC8BF0A42CFCE98EF0A42CFC4C
:10045F008AF0EDA42CFCEA8EF0A4CDA8F08BF0A4CA
:10046F002DCC3825F0FDE98FF0A42CCD35F0FCEB29
:10047F008EF0A4FEA9F0EB8FF0A4CFC5F02ECD39EE
:0F048F00FEE43CFCEAA42DCE35F0FDE43CFC225B
:10049E0075F008758200EF2FFFEE33FECD33CDCC15
:1004AE0033CCC58233C5829BED9AEC99E582984098
:1004BE000CF582EE9BFEED9AFDEC99FC0FD5F0D675
:1004CE00E4CEFBE4CDFAE4CCF9A88222B800C1B99F
:1004DE000059BA002DEC8BF084CFCECDFCE5F0CBDD
:1004EE00F97818EF2FFFEE33FEED33FDEC33FCEB16
:1004FE0033FB10D703994004EB99FB0FD8E5E4F9D1
:10050E00FA227818EF2FFFEE33FEED33FDEC33FCBD
:10051E00C933C910D7059BE99A4007EC9BFCE99AB1
:10052E00F90FD8E0E4C9FAE4CCFB2275F010EF2FF6
:10053E00FFEE33FEED33FDCC33CCC833C810D707F6
:10054E009BEC9AE899400AED9BFDEC9AFCE899F831
:0E055E000FD5F0DAE4CDFBE4CCFAE4C8F922C4
:10056C00E8600FECC313FCED13FDEE13FEEF13FF6D
:03057C00D8F12291
:10057F00EF4E6012EF60010EEDBB010B89828A8393
:10058F00F0A3DFFCDEFA2289F05007F709DFFCA9A0
:0C059F00F022BBFEFCF309DFFCA9F022F7
:1006B0000208DCE493A3F8E493A34003F68001F27C
:1006C00008DFF48029E493A3F85407240CC8C3334B
:1006D000C4540F4420C8834004F456800146F6DF1A
:1006E000E4800B01020408102040809009AAE47EF7
:1006F000019360BCA3FF543F30E509541FFEE4930F
:10070000A360010ECF54C025E060A840B8E493A3D5
:10071000FAE493A3F8E493A3C8C582C8CAC583CA00
:10072000F0A3C8C582C8CAC583CADFE9DEE780BEB8
:0109C800002E
:00000001FF
